:10F000005542200135D0085A82454802314000035C
:10F010003F4010000F9308249242480220012F83A2
:10F020009F4FD0F90002F8233F4038000F93072488
:10F030009242480220011F83CF431002F92331502E
:10F04000CAFF5F4220002FF307201F42BEFFFF933D
:10F05000000002241042BEFFB240805A2001C24389
:10F060002100F240FCFF2200F2D020002200C24327
:10F070002E00F240C0FF2A00C2432900F2400F00D8
:10F080005700F2407F0056003E400B003F401E2CD0
:10F090001F83FE231E83FC230343C2432400C24379
:10F0A00023008143320046430B434443C1433000B5
:10F0B000814334000A4305430943F1400C00310009
:10F0C000474308430C3CC193300007244793052075
:10F0D00018533890014001285743915332008193CF
:10F0E00032002220C19330000624F2E040002900C3
:10F0F000D1433000533CC193310013201F42BEFF67
:10F10000FF9300000E2432C282436001C2432200FA
:10F11000C2432A00C2432100C24329001042BEFF5D
:10F12000343CF1533100313CC19330002E24D143A3
:10F130003000343C3E532B208243120282431002A3
:10F14000B240240260013F40E803143C5E422000CC
:10F150002EF3FC27A2D260015E4220002EF3FC2396
:10F160001E4270013E90983A032CD2535600023C46
:10F17000F25356003F53EA23D243250032D2D14303
:10F1800030000A4305430943093C3E4050005F42BA
:10F1900020003FF00300CE27C14330005E4216023C
:10F1A0004E937724C24316025F4225027F902D00C2
:10F1B00016203F401602B012A0F4824F26020F9391
:10F1C0000824B240C3000402924346024743084366
:10F1D000603CB24024F92802474308435A3C7F90E0
:10F1E000E1FF49207E900A0014205942190289103B
:10F1F0005F421A02095F55421B0285105F421C02E2
:10F20000055F399000FF3A280A49474308430B41FC
:10F21000403C7E923C200B931124DB4219020000FB
:10F22000DB421A020100DB421B020200DB421C022D
:10F2300003002B522A52474308432B3C4F440E41B4
:10F240000E5FDE42190200001E430E510E5FDE42C9
:10F250001A0200002E430E510E5FDE421B02000018
:10F260003E4003000E510F5EDF421C02000064525C
:10F27000474308430E3C474308430B3C8145340059
:10F280000A494743084356430B434443023C474320
:10F290000843829326020524829328020220B0129A
:10F2A00044F4479374240B938624099A842C399050
:10F2B00000FF81281C42E4FF1D42FEFF32C2B24023
:10F2C00002A52801B24000A52C01C24300FFB240B4
:10F2D00040A528010E413F40A0FFFF4E00001F53F4
:10F2E0003F90C0FFFA23814C0400814D1E000E4167
:10F2F0003F40E0FFFF4E00001F53FC2392413400CB
:10F3000080FFB24055AADEFFB24000A52801B240FE
:10F3100010A52C0132D20B434E3CB2405EA52A010F
:10F32000B24002A52801B24000A52C01CA4300004A
:10F33000B24040A52801413C399000FF222C449363
:10F3400022240E4A0D410D8A053C0F4D0F5EEE4FF3
:10F3500000001E534F4E4F8A4F94F72B44440A54DB
:10F360003AB0FF011220B24002A52801B24000A528
:10F370002C01CA430000B24040A528014643444343
:10F38000063C4643043C4643023C464344430A95FC
:10F39000022C3040C6F00B9302243040C6F0B2403D
:10F3A00000A52801B24010A52C0144430A4305439F
:10F3B00009433040C6F04693B0230B93BD27464324
:10F3C000E63F32D0F000FD3F304022F90B126E4F85
:10F3D0004C4E0C5F6E53CF4E00002F533E43283CE3
:10F3E0007D4F0DEE8E104E4E1DB302243EE0C1C087
:10F3F0002DB302243EE081C12DB202243EE001C3C0
:10F400003DB202243EE001C63DB0100002243EE0C1
:10F4100001CC3DB0200002243EE001D83DB04000C8
:10F4200002243EE001F03DF0800002243EE001A015
:10F430000C9FD62F3EE3CF4E00008E10CF4E010022
:10F440003B4130410B121F4226021B4246020E4F27
:10F450000E5B6C4F0C5F1F4204023FE08800824F3E
:10F460000402C24F2B020F433D402C020C9E032C82
:10F4700082432602063CFD4E00001D531F533F925F
:10F48000F5230B5F824B46025F53C24F2A023F4077
:10F490002A02B012CCF3B2402A0228023B4130418A
:10F4A0005E4F02003EF0200019245F4F03005F937F
:10F4B00006245A287F50F7FF6F93562C523CD242B5
:10F4C00080FF0B02D24281FF0C02D242F10F0D02EB
:10F4D000D242F00F0E023F4007023041FF900C0075
:10F4E0000300422C5E4F03000E5E104E26F93F4093
:10F4F0003FF93041D24F04001002C2431102313CA7
:10F500005E4F05006E9310247E900300032C5E93E3
:10F510002820073C7E9003000E247E9022002120AC
:10F52000183C3F4042F93041FF90090008001E207E
:10F530003F4055F930415F4F04005F931A24032880
:10F540006F930720033C3F4082F930413F409CF9D4
:10F5500030413F40ADF9304182431402B2404B008C
:10F5600002023F403EF930410F4330413F405FF9D6
:10F5700030413F4087F93041FF40030000001E4208
:10F5800002023EE08800824E0202CF4E0100CF43CD
:10F590000200CF430300304112021002280214027D
:10F5A0001602000236024AF801D2015A011E3C41FD
:10F5B0003B413A413941D2C323000013F2900F007E
:10F5C000570002241042A4FF09120A1239402000F9
:10F5D0002A436AB904246AB902246AB9EA236AB9D7
:10F5E00006206AB904206AB902206AB9E2270B1220
:10F5F0006A496B492AB302282BB30128003C0C123C
:10F6000003436A492AB31A28003C6A496B492AB362
:10F6100002282BB30128003C003C003C6A492AB375
:10F620000D28003C6A496B492AB302282BB30128F4
:10F63000003C003C003C6A492AB3B92F003CE2E29E
:10F6400021006A493C407F002AF34C100D120D4303
:10F650006B490AEB2AF34C100E123E4000026A4935
:10F660000BEA2BF34C100F122F4E6B490AEB2AF3C7
:10F670004C1008123840FC006A490BEA2BF34C107E
:10F68000413C6A490BEA2BF34C100D433EE30CB8A6
:10F6900007206A493AF003006D243CD080001DE346
:10F6A0006B493BF0030066240AEB2AF34C100CB8BC
:10F6B0006A4908200B4A03433CD080002DE30343F2
:10F6C0006A49003C0BEA2BF34C100CB807206A493E
:10F6D0003AF003004F243CD080002DE26B490AEB46
:10F6E0002AF34C10CF4E00000CB86A4908200B4A90
:10F6F00003433CD080003DE203436A49003C0BEAEF
:10F700002BF34C100CB808206A493AF0030032245D
:10F710003CD080003DE010006B490AEB2AF34C100E
:10F720001F5303430CB808206B493BF0030022240D
:10F730003CD080003DE020006A490BEA2BF34C10DE
:10F74000003C0CB808206A493AF0030013243CD06E
:10F7500080003DE040006B490AEB2AF34C100E4C50
:10F760000ECD0CB88E236B492BF33CD080000343A5
:10F77000003C873FD2C32300CF4E00001E42000250
:10F780000F8ECE4F0000E2E221005A4E01005B4E88
:10F7900002005C4E03003BB080000C6C3CF00F009C
:10F7A0003BC080003A90690022243A90E1003F2457
:10F7B0003A902D003C24B290160200020920B2407B
:10F7C000360200023A90C3003B243A904B003824A2
:10F7D00038413F413E413D413C413B41D2B3230092
:10F7E000F52E3A413941D2B32300EE2E0013C29BCD
:10F7F0001202EE231C9305201F42140282431402BE
:10F80000043C1F422802824328020F9304203F40F9
:10F81000AAF530404AF88F93000005249242100266
:10F82000120230404AF83F40ACF530404AF8C29BE3
:10F830001202CE23C24A2502B24016020002C83F7D
:10F840003F40A8F530404AF80013D2C32100E2D36C
:10F85000210039400300C2D922007A4F1A533B409D
:10F8600080000C430B1106281C833C90FBFF052CE9
:10F870000343F93FC2E921000C4308430B11034342
:10F8800005281C833C90FBFF042CF93FC2E92100B2
:10F890000C430B11034305281C833C90FBFF042CF5
:10F8A000F93F0C43C2E9210018E3E8230B1103439D
:10F8B00005281C833C90FBFF042CF93FC2E9210082
:10F8C0000C437D4F0B1106281C833C90FBFF052C3D
:10F8D0000343F93FC2E921000C430B110B4D0528EE
:10F8E0001C833C90FBFF042CF93F0C43C2E9210030
:10F8F0001A83B823003CF2C00300210038413F4185
:10F900003E413D413C413B413A413941E2D3210036
:10F91000003C003C0343F2C003002200D2C323009A
:04F9200000130013BD
:10F92400011EEEF468F568F568F568F5F4F400F581
:10F9340068F568F562F568F558F5000200001212E2
:10F9440001100100000008C016DF050100010200DB
:10F954000109090222000101008032220902220069
:10F9640001010080320904000001030000000921A4
:10F9740001010001222100070581030800C80404D5
:10F98400030904141403730069006D0070006C0013
:10F99400650061007600720010100362006F006F52
:10F9A400007400340033003000210600FF0901A177
:10F9B40001150026FF007508850195060900B202AD
:0CF9C40001850295040900B20201C00098
:10F9D00036024B00C300040701005BFFFFFFFF007E
:10FFE00048F848F8BCF548F848F848F848F848F8A0
:10FFF00048F848F848F848F848F848F848F800F051
:040000030000F00009
:00000001FF
