:10C000005542200135D0085A8245000231400004D3
:10C010003F4000000F9308249242000220012F832A
:10C020009F4F94C00002F8233F4000000F93072465
:10C030009242000220011F83CF430002F923B24045
:10C04000805A2001D242FF105700D242FE10560003
:10C05000C2432E00F2432200F240C0FF2A00C24336
:10C060002100C24329005F4221007FE3C24F21002B
:10C07000F2E0400029003E4006003F400E161F83BC
:10C08000FE231E83FC23EF3F32D0F000FD3F304003
:04C0900092C0001347
:10FFE0008EC08EC08EC08EC08EC08EC08EC08EC0A1
:10FFF0008EC08EC08EC08EC08EC08EC08EC000C01F
:040000030000C00039
:00000001FF
